S01B000053657269616C436F6D6D756E69636174696F6E2E7372656353
S11300000C942A000C943F000C943F000C943F0085
S11300100C943F000C943F000C943F000C943F0060
S11300200C943F000C943F000C943F000C943F0050
S11300300C943F000C943F000C943F000C943F0040
S11300400C943F000C943F000C943F000C943F0030
S11300500C943F0011241FBECFE5D8E0DEBFCDBF16
S113006010E0A0E6B0E0ECE9F7E002C005900D92E4
S1130070AE36B107D9F70E94EA000C94CC030C9475
S11300800000CF93DF931F92CDB7DEB789838981B8
S1130090882F90E08430910549F0409709F00CC016
S11300A040E064E082E00E940D0106C040E062E0AE
S11300B081E00E940D01000000000F90DF91CF91BC
S11300C00895CF93DF9300D000D0CDB7DEB78C83F3
S11300D08FEF89838C81882F90E084309105E1F043
S11300E04097A1F564E082E00E94B9018A836AE046
S11300F070E080E090E00E94AE0064E082E00E9444
S1130100B9018B839A818B81981719F48A81898329
S11301101DC08FEF89831AC062E081E00E94B9019B
S11301208A836AE070E080E090E00E94AE0062E0C2
S113013081E00E94B9018B839A818B81981719F40D
S11301408A81898302C08FEF8983000089810F909F
S11301500F900F900F90DF91CF910895CF93DF937D
S1130160CDB7DEB728970FB6F894DEBF0FBECDBF6C
S11301706D837E838F8398872D813E814F8158853F
S113018080E89EE3DC010E94B203DC01CB01898399
S11301909A83AB83BC830BC089819A81AB81BC8178
S11301A00997A109B10989839A83AB83BC838981A7
S11301B09A81AB81BC81181619061A061B0664F3D2
S11301C0000028960FB6F894DEBF0FBECDBFDF91B6
S11301D0CF910895CF93DF931F92CDB7DEB71982E5
S11301E080E690E00E94300280E10E94410080E1BC
S11301F00E9461008823D9F389818A3008F019822A
S113020089810E94720389818F5F898364E670E02B
S113021080E090E00E94AE00EACFCF93DF9300D05D
S11302201F92CDB7DEB789836A834B838981882F78
S113023090E08130910581F1823091051CF4892B85
S113024049F090C08230910509F448C0039709F43D
S113025067C088C08B81882F90E0009721F08F3F82
S1130260910571F07FC08AE390E02AE330E0F90160
S11302702081322F2A8120952323FC0120830BC067
S11302808AE390E02AE330E0F90130812A81232BCC
S1130290FC012083000066C08B81882F90E00097CA
S11302A021F08F3F910571F05DC087E390E027E373
S11302B030E0F9012081322F2A8120952323FC018B
S11302C020830BC087E390E027E330E0F90130811D
S11302D02A81232BFC012083000044C08B81882FBA
S11302E090E0009721F08F3F910571F03BC084E3CB
S11302F090E024E330E0F9012081322F2A81209517
S11303002323FC0120830BC084E390E024E330E04A
S1130310F90130812A81232BFC012083000022C0B3
S11303208B81882F90E0009721F08F3F910571F029
S113033018C081E390E021E330E0F9012081322FFD
S11303402A8120952323FC0120830BC081E390E0C4
S113035021E330E0F90130812A81232BFC01208341
S11303600000000000000F900F900F90DF91CF91DC
S11303700895CF93DF9300D01F92CDB7DEB78A8361
S11303806B8319828A81882F90E081309105E9F08E
S1130390823091051CF4892B39F04AC082309105D2
S11303A029F10397A1F144C089E390E0FC01808125
S11303B0882F90E02B81222F30E002C095958795FD
S11303C02A95E2F78170898333C086E390E0FC01CB
S11303D08081882F90E02B81222F30E002C09595F8
S11303E087952A95E2F78170898322C083E390E0A0
S11303F0FC018081882F90E02B81222F30E002C005
S1130400959587952A95E2F78170898311C080E3D9
S113041090E0FC018081882F90E02B81222F30E036
S113042002C0959587952A95E2F78170898300002B
S113043089810F900F900F90DF91CF910895CF9302
S1130440DF93CDB7DEB78FE590E02FE530E0F9011B
S113045020812068FC0120830000DF91CF91089562
S1130460EF92FF920F931F93CF93DF9300D000D0AE
S11304701F92CDB7DEB79D838C8381E089838C8105
S11304809D81FC0121853285438554858C819D8124
S1130490FC0180819181A281B381880F991FAA1FD9
S11304A0BB1F880F991FAA1FBB1F880F991FAA1F64
S11304B0BB1F880F991FAA1FBB1F7C018D01CA0196
S11304C0B901A80197010E949003DA01C9010197BB
S11304D09B838A8389E290E02A81FC01208380E463
S11304E090E020E430E0F9012081422F2A813B8111
S11304F0232F3327242BFC01208380E490E020E485
S113050030E0F90120812260FC01208380E490E046
S113051020E430E0F90120812460FC0120838AE298
S113052090E02AE230E0F90120812B7FFC01208356
S11305308C819D81FC018481882F90E0009761F07B
S11305400197A1F48AE290E02AE230E0F9012081E7
S11305502061FC0120830CC08AE290E02AE230E0B2
S1130560F90120812F7EFC01208302C01982000042
S11305708C819D81FC018581882F90E0009761F03A
S11305800197A1F48AE290E02AE230E0F9012081A7
S11305902860FC0120830CC08AE290E02AE230E06B
S11305A0F9012081277FFC01208302C01982000009
S11305B08C819D81FC018681882F90E0813091059A
S11305C0C1F08230910541F1892BC9F580E490E0B6
S11305D020E430E0F90120812F7EFC01208380E4B7
S11305E090E020E430E0F90120812F7DFC0120839C
S11305F028C080E490E020E430E0F90120812F7EDF
S1130600FC01208380E490E020E430E0F9012081C3
S11306102062FC01208315C080E490E020E430E0F7
S1130620F90120812061FC01208380E490E020E432
S113063030E0F90120812062FC01208302C019828C
S113064000008C819D81FC018781882F90E081309E
S1130650910519F0029759F014C080E490E020E469
S113066030E0F9012081277FFC0120830CC080E465
S113067090E020E430E0F90120812860FC0120832F
S113068002C0198200008C819D81FC018085882F25
S113069090E0009771F00197B1F48AE290E02AE2C9
S11306A030E0F90120812068FC0120830E941F02B0
S11306B00CC08AE290E02AE230E0F90120812F7731
S11306C0FC01208302C01982000089810F900F90E1
S11306D00F900F900F90DF91CF911F910F91FF908A
S11306E0EF900895CF93DF931F92CDB7DEB7898340
S11306F000008BE290E0FC018081829586958770F2
S1130700882F90E081709927892B99F38CE290E0EF
S11307102981FC01208381E00F90DF91CF9108951E
S1130720A1E21A2EAA1BBB1BFD010DC0AA1FBB1FF1
S1130730EE1FFF1FA217B307E407F50720F0A21B63
S1130740B30BE40BF50B661F771F881F991F1A94D0
S113075069F760957095809590959B01AC01BD01FA
S1130760CF0108950E94BD03A59F900DB49F900DE5
S1130770A49F800D911D11240895A29FB001B39FE1
S1130780C001A39F700D811D1124911DB29F700D96
S10F0790811D1124911D0895F894FFCFE1
S111079C8025000000010001000024F400008C
S9030000FC
