S01B000053657269616C436F6D6D756E69636174696F6E2E7372656353
S11300000C942A000C943F000C943F000C943F0085
S11300100C943F000C943F000C943F000C943F0060
S11300200C943F000C943F000C943F000C943F0050
S11300300C943F000C943F000C943F000C943F0040
S11300400C943F000C943F000C943F000C943F0030
S11300500C943F0011241FBECFE5D8E0DEBFCDBF16
S113006010E0A0E6B0E0E4E0F9E002C005900D92F3
S1130070AE36B107D9F70E94A4000C9480040C9406
S11300800000CF93DF931F92CDB7DEB789836FEF64
S113009081E00E9402028981882F90E081309105DD
S11300A0B9F0823091051CF4892B39F032C08230CA
S11300B09105C9F0039711F12CC04FEF64E083E080
S11300C00E94B70041E064E083E00E94630121C024
S11300D04FEF68E083E00E94B70041E068E083E00E
S11300E00E94630116C04FEF60E483E00E94B700F2
S11300F041E060E483E00E9463010BC04FEF60E8DD
S113010083E00E94B70041E060E883E00E9463015D
S1130110000080E00E94910000000F90DF91CF91D9
S11301200895CF93DF931F92CDB7DEB789836FEF26
S113013081E00E940202698181E00E949B0200002A
S11301400F90DF91CF910895CF93DF931F92CDB796
S1130150DEB780E690E00E94030380E00E94410045
S11301600E944504898389810E949100F9CFCF932D
S1130170DF9300D01F92CDB7DEB789836A834B83A8
S11301808981882F90E08130910581F18230910539
S11301901CF4892B49F090C08230910509F448C0C1
S11301A0039709F467C088C08B81882F90E000977B
S11301B021F08F3F910571F07FC08AE390E02AE33C
S11301C030E0F9012081322F2A8120952323FC017C
S11301D020830BC08AE390E02AE330E0F901308108
S11301E02A81232BFC012083000066C08B81882F89
S11301F090E0009721F08F3F910571F05DC087E397
S113020090E027E330E0F9012081322F2A81209504
S11302102323FC0120830BC087E390E027E330E035
S1130220F90130812A81232BFC012083000044C082
S11302308B81882F90E0009721F08F3F910571F01A
S11302403BC084E390E024E330E0F9012081322FC5
S11302502A8120952323FC0120830BC084E390E0B2
S113026024E330E0F90130812A81232BFC0120832F
S1130270000022C08B81882F90E0009721F08F3FEF
S1130280910571F018C081E390E021E330E0F901B9
S11302902081322F2A8120952323FC0120830BC047
S11302A081E390E021E330E0F90130812A81232BBE
S11302B0FC0120830000000000000F900F900F90BD
S11302C0DF91CF910895CF93DF9300D01F92CDB7E4
S11302D0DEB789836A834B838B81882F90E00097F4
S11302E009F442C0019709F086C08981882F90E003
S11302F081309105B9F0823091051CF4892B39F0D5
S11303007AC082309105C9F0039711F174C08BE370
S113031090E02BE330E0F90130812A81232BFC01AA
S1130320208321C088E390E028E330E0F9013081A4
S11303302A81232BFC01208316C085E390E025E36A
S113034030E0F90130812A81232BFC0120830BC08A
S113035082E390E022E330E0F90130812A81232B0B
S1130360FC012083000047C08981882F90E0813000
S11303709105C9F0823091051CF4892B39F03AC0FB
S113038082309105E9F0039741F134C08BE390E0AA
S11303902BE330E0F9012081322F2A812095232399
S11303A0FC01208327C088E390E028E330E0F901D2
S11303B02081322F2A8120952323FC0120831AC017
S11303C085E390E025E330E0F9012081322F2A8192
S11303D020952323FC0120830DC082E390E022E3D7
S11303E030E0F9012081322F2A8120952323FC015A
S11303F020830000000000000F900F900F90DF9109
S1130400CF910895CF93DF9300D0CDB7DEB7898322
S11304106A838981882F90E08130910561F182306F
S113042091051CF4892B49F080C08230910509F4B0
S113043040C0039709F45BC078C08A81882F90E09C
S1130440009721F08F3F910559F06FC08AE390E047
S11304502AE330E0F9012081207FFC0120830AC0D7
S11304608AE390E02AE330E0F90120812F60FC0167
S1130470208300005AC08A81882F90E0009721F0E1
S11304808F3F910559F051C087E390E027E330E0B6
S1130490F9012081207FFC0120830AC087E390E0DA
S11304A027E330E0F90120812F60FC012083000064
S11304B03CC08A81882F90E0009721F08F3F9105FE
S11304C059F033C084E390E024E330E0F901208163
S11304D0207FFC0120830AC084E390E024E330E021
S11304E0F90120812F60FC01208300001EC08A8155
S11304F0882F90E0009721F08F3F910559F014C0A8
S113050081E390E021E330E0F9012081207FFC01C8
S113051020830AC081E390E021E330E0F9012081E7
S11305202F60FC0120830000000000000F900F905A
S1130530DF91CF910895CF93DF9300D0CDB7DEB78D
S113054089836A838981882F90E081309105D1F075
S1130550823091051CF4892B39F03EC0823091051C
S1130560F9F0039759F138C08BE390E02BE330E0C6
S1130570F9012081322F307F2A812F70232BFC0137
S113058020832AC088E390E028E330E0F901208149
S1130590322F307F2A812F70232BFC0120831CC033
S11305A085E390E025E330E0F9012081322F307FAC
S11305B02A812F70232BFC0120830EC082E390E05C
S11305C022E330E0F9012081322F307F2A812F701D
S11305D0232BFC012083000000000F900F90DF917B
S11305E0CF910895CF93DF93CDB7DEB78FE590E039
S11305F02FE530E0F90120812068FC012083000010
S1130600DF91CF910895EF92FF920F931F93CF93B1
S1130610DF9300D000D01F92CDB7DEB79D838C83CB
S113062081E089838C819D81FC012185328543850C
S113063054858C819D81FC0180819181A281B3814B
S1130640880F991FAA1FBB1F880F991FAA1FBB1FC2
S1130650880F991FAA1FBB1F880F991FAA1FBB1FB2
S11306607C018D01CA01B901A80197010E945E04B1
S1130670DA01C90101979B838A8389E290E02A8188
S1130680FC01208380E490E020E430E0F901208143
S1130690422F2A813B81232F3327242BFC012083E3
S11306A080E490E020E430E0F90120812260FC0144
S11306B0208380E490E020E430E0F901208124608C
S11306C0FC0120838AE290E02AE230E0F9012081F3
S11306D02B7FFC0120838C819D81FC018481882FE8
S11306E090E0009761F00197A1F48AE290E02AE299
S11306F030E0F90120812061FC0120830CC08AE2F2
S113070090E02AE230E0F90120812F7EFC01208371
S113071002C0198200008C819D81FC018581882F93
S113072090E0009761F00197A1F48AE290E02AE258
S113073030E0F90120812860FC0120830CC08AE2AA
S113074090E02AE230E0F9012081277FFC01208338
S113075002C0198200008C819D81FC018681882F52
S113076090E081309105C1F08230910541F1892BEF
S1130770C9F580E490E020E430E0F90120812F7E87
S1130780FC01208380E490E020E430E0F901208142
S11307902F7DFC01208328C080E490E020E430E039
S11307A0F90120812F7EFC01208380E490E020E485
S11307B030E0F90120812062FC01208315C080E42F
S11307C090E020E430E0F90120812061FC012083E5
S11307D080E490E020E430E0F90120812062FC0113
S11307E0208302C0198200008C819D81FC018781D5
S11307F0882F90E08130910519F0029759F014C0C8
S113080080E490E020E430E0F9012081277FFC01BE
S113081020830CC080E490E020E430E0F9012081E2
S11308202860FC01208302C0198200008C819D8114
S1130830FC018085882F90E0009771F00197B1F456
S11308408AE290E02AE230E0F90120812068FC018C
S113085020830E94F2020CC08AE290E02AE230E097
S1130860F90120812F77FC01208302C01982000046
S113087089810F900F900F900F900F90DF91CF917F
S11308801F910F91FF90EF900895CF93DF93CDB711
S1130890DEB700008BE290E0FC018081881F88278E
S11308A0881F882F90E081709927892B99F38CE217
S11308B090E0FC018081DF91CF910895A1E21A2E8E
S11308C0AA1BBB1BFD010DC0AA1FBB1FEE1FFF1FF0
S11308D0A217B307E407F50720F0A21BB30BE40B40
S11308E0F50B661F771F881F991F1A9469F7609587
S11308F07095809590959B01AC01BD01CF01089541
S1070900F894FFCF95
S11109048025000001000001000024F4000022
S9030000FC
