:100000000C942A000C9447000C9447000C94470071
:100010000C9447000C9447000C9447000C94470044
:100020000C9447000C9447000C9447000C94470034
:100030000C9447000C9447000C9447000C94470024
:100040000C9447000C9447000C9447000C94470014
:100050000C94470011241FBECFE5D8E0DEBFCDBF12
:1000600010E0A0E6B0E0E8EBF8E002C005900D92E9
:10007000A036B107D9F720E0A0E6B0E001C01D929C
:10008000A636B207E1F70E94AC000C945A040C9417
:100090000000CF93DF931F92CDB7DEB789836FEF58
:1000A00081E00E940A028981882F90E081309105C9
:1000B000B9F0823091051CF4892B39F032C08230BE
:1000C0009105C9F0039711F12CC04FEF64E083E074
:1000D0000E94BF0041E064E083E00E946B0121C008
:1000E0004FEF68E083E00E94BF0041E068E083E0FA
:1000F0000E946B0116C04FEF60E483E00E94BF00D6
:1001000041E060E483E00E946B010BC04FEF60E8C8
:1001100083E00E94BF0041E060E883E00E946B0141
:10012000000080E00E94990000000F90DF91CF91C5
:100130000895CF93DF931F92CDB7DEB789836FEF1A
:1001400081E00E940A02698181E00E94A30200000E
:100150000F90DF91CF910895CF93DF931F92CDB78A
:10016000DEB780E690E00E940B0380E00E94490029
:100170000E944104898389810E949900F9CFCF931D
:10018000DF9300D01F92CDB7DEB789836A834B839C
:100190008981882F90E08130910581F1823091052D
:1001A0001CF4892B49F090C08230910509F448C0B5
:1001B000039709F467C088C08B81882F90E000976F
:1001C00021F08F3F910571F07FC08AE390E02AE330
:1001D00030E0F9012081322F2A8120952323FC0170
:1001E00020830BC08AE390E02AE330E0F9013081FC
:1001F0002A81232BFC012083000066C08B81882F7D
:1002000090E0009721F08F3F910571F05DC087E38A
:1002100090E027E330E0F9012081322F2A812095F8
:100220002323FC0120830BC087E390E027E330E029
:10023000F90130812A81232BFC012083000044C076
:100240008B81882F90E0009721F08F3F910571F00E
:100250003BC084E390E024E330E0F9012081322FB9
:100260002A8120952323FC0120830BC084E390E0A6
:1002700024E330E0F90130812A81232BFC01208323
:10028000000022C08B81882F90E0009721F08F3FE3
:10029000910571F018C081E390E021E330E0F901AD
:1002A0002081322F2A8120952323FC0120830BC03B
:1002B00081E390E021E330E0F90130812A81232BB2
:1002C000FC0120830000000000000F900F900F90B1
:1002D000DF91CF910895CF93DF9300D01F92CDB7D8
:1002E000DEB789836A834B838B81882F90E00097E8
:1002F00009F442C0019709F086C08981882F90E0F7
:1003000081309105B9F0823091051CF4892B39F0C8
:100310007AC082309105C9F0039711F174C08BE364
:1003200090E02BE330E0F90130812A81232BFC019E
:10033000208321C088E390E028E330E0F901308198
:100340002A81232BFC01208316C085E390E025E35E
:1003500030E0F90130812A81232BFC0120830BC07E
:1003600082E390E022E330E0F90130812A81232BFF
:10037000FC012083000047C08981882F90E08130F4
:100380009105C9F0823091051CF4892B39F03AC0EF
:1003900082309105E9F0039741F134C08BE390E09E
:1003A0002BE330E0F9012081322F2A81209523238D
:1003B000FC01208327C088E390E028E330E0F901C6
:1003C0002081322F2A8120952323FC0120831AC00B
:1003D00085E390E025E330E0F9012081322F2A8186
:1003E00020952323FC0120830DC082E390E022E3CB
:1003F00030E0F9012081322F2A8120952323FC014E
:1004000020830000000000000F900F900F90DF91FC
:10041000CF910895CF93DF9300D0CDB7DEB7898316
:100420006A838981882F90E08130910561F1823063
:1004300091051CF4892B49F080C08230910509F4A4
:1004400040C0039709F45BC078C08A81882F90E090
:10045000009721F08F3F910559F06FC08AE390E03B
:100460002AE330E0F9012081207FFC0120830AC0CB
:100470008AE390E02AE330E0F90120812F60FC015B
:10048000208300005AC08A81882F90E0009721F0D5
:100490008F3F910559F051C087E390E027E330E0AA
:1004A000F9012081207FFC0120830AC087E390E0CE
:1004B00027E330E0F90120812F60FC012083000058
:1004C0003CC08A81882F90E0009721F08F3F9105F2
:1004D00059F033C084E390E024E330E0F901208157
:1004E000207FFC0120830AC084E390E024E330E015
:1004F000F90120812F60FC01208300001EC08A8149
:10050000882F90E0009721F08F3F910559F014C09B
:1005100081E390E021E330E0F9012081207FFC01BC
:1005200020830AC081E390E021E330E0F9012081DB
:100530002F60FC0120830000000000000F900F904E
:10054000DF91CF910895CF93DF9300D0CDB7DEB781
:1005500089836A838981882F90E081309105D1F069
:10056000823091051CF4892B39F03EC08230910510
:10057000F9F0039759F138C08BE390E02BE330E0BA
:10058000F9012081322F307F2A812F70232BFC012B
:1005900020832AC088E390E028E330E0F90120813D
:1005A000322F307F2A812F70232BFC0120831CC027
:1005B00085E390E025E330E0F9012081322F307FA0
:1005C0002A812F70232BFC0120830EC082E390E050
:1005D00022E330E0F9012081322F307F2A812F7011
:1005E000232BFC012083000000000F900F90DF916F
:1005F000CF910895CF93DF93CDB7DEB78FE590E02D
:100600002FE530E0F90120812068FC012083000003
:10061000DF91CF910895CF93DF9300D01F92CDB794
:10062000DEB79B838A8381E089838A819B81FC0179
:100630008081882F90E00097D9F0019741F54FEF26
:1006400060E181E00E94BF004FEF60E281E00E9424
:10065000BF004FEF60E881E00E94BF008DE290E0B4
:100660002DE230E0F90120812061FC01208311C0DE
:100670004FEF60E481E00E94BF008DE290E02DE248
:1006800030E0F90120812F7EFC01208302C0198215
:1006900000008A819B81FC018181882F90E0009776
:1006A00019F0019759F014C08DE290E02DE230E08E
:1006B000F9012081277FFC0120830CC08DE290E0AE
:1006C0002DE230E0F90120812860FC01208302C086
:1006D000198200008A819B81FC018281882F90E031
:1006E000009771F00197B1F48DE290E02DE230E0D7
:1006F000F90120812068FC0120830E94FA020CC0CD
:100700008DE290E02DE230E0F90120812F77FC01AD
:10071000208302C0198200008A819B81FC018381B1
:10072000882F90E0009719F0019759F014C08DE2DE
:1007300090E02DE230E0F90120812062FC0120836D
:100740000CC08DE290E02DE230E0F90120812F7D98
:10075000FC01208302C0198200008A819B81FC0178
:100760008481882F90E0009719F0019759F014C008
:100770008DE290E02DE230E0F90120812B7FFC0139
:1007800020830CC08DE290E02DE230E0F901208161
:100790002460FC01208302C0198200008A819B81B1
:1007A000FC018581882F90E081309105F9F082303D
:1007B00091051CF4892B39F052C08230910549F122
:1007C0000397D1F14CC08DE290E02DE230E0F901C9
:1007D00020812E7FFC0120838DE290E02DE230E02D
:1007E000F90120812D7FFC0120833BC08DE290E048
:1007F0002DE230E0F90120812160FC0120838DE2AF
:1008000090E02DE230E0F90120812D7FFC01208372
:1008100028C08DE290E02DE230E0F90120812E7FAA
:10082000FC0120838DE290E02DE230E0F90120818F
:100830002260FC01208315C08DE290E02DE230E0C3
:10084000F90120812160FC0120838DE290E02DE2FE
:1008500030E0F90120812260FC01208302C019826E
:1008600000008DE290E02DE230E0F901208120646B
:10087000FC01208389810F900F900F90DF91CF9121
:100880000895CF93DF93CDB7DEB700008EE290E0FE
:10089000FC018081881F8827881F882F90E0817045
:1008A0009927892B99F38FE290E0FC018081DF91F9
:0808B000CF910895F894FFCFE9
:00000001FF
